{
    "abi": [
        {
            "type": "constructor",
            "inputs": [
                {
                    "name": "_entryPoint",
                    "type": "address",
                    "internalType": "contract IEntryPoint"
                }
            ],
            "stateMutability": "nonpayable"
        },
        {
            "type": "function",
            "name": "createAccount",
            "inputs": [
                {
                    "name": "owner",
                    "type": "address",
                    "internalType": "address"
                },
                {
                    "name": "salt",
                    "type": "uint256",
                    "internalType": "uint256"
                }
            ],
            "outputs": [
                {
                    "name": "account",
                    "type": "address",
                    "internalType": "contract SmartAccount"
                }
            ],
            "stateMutability": "nonpayable"
        },
        {
            "type": "function",
            "name": "entryPoint",
            "inputs": [],
            "outputs": [
                {
                    "name": "",
                    "type": "address",
                    "internalType": "contract IEntryPoint"
                }
            ],
            "stateMutability": "view"
        },
        {
            "type": "function",
            "name": "getAddress",
            "inputs": [
                {
                    "name": "owner",
                    "type": "address",
                    "internalType": "address"
                },
                {
                    "name": "salt",
                    "type": "uint256",
                    "internalType": "uint256"
                }
            ],
            "outputs": [
                {
                    "name": "predicted",
                    "type": "address",
                    "internalType": "address"
                }
            ],
            "stateMutability": "view"
        },
        {
            "type": "event",
            "name": "AccountCreated",
            "inputs": [
                {
                    "name": "account",
                    "type": "address",
                    "indexed": true,
                    "internalType": "address"
                },
                {
                    "name": "owner",
                    "type": "address",
                    "indexed": true,
                    "internalType": "address"
                },
                {
                    "name": "salt",
                    "type": "uint256",
                    "indexed": false,
                    "internalType": "uint256"
                }
            ],
            "anonymous": false
        }
    ],
    "bytecode": {
        "object": "0x60a034607257601f6124b838819003918201601f19168301916001600160401b03831184841017607657808492602094604052833981010312607257516001600160a01b038116810360725760805260405161242d908161008b823960805181818160520152818160c601526101cb0152f35b5f80fd5b634e487b7160e01b5f52604160045260245ffdfe6080806040526004361015610012575f80fd5b5f3560e01c9081635fbfb9cf14610189575080638cb84e18146100855763b0d691fe1461003d575f80fd5b34610081575f366003190112610081576040517f00000000000000000000000000000000000000000000000000000000000000006001600160a01b03168152602090f35b5f80fd5b346100815760206100953661026d565b604051909161013e6121426100ac86820185610293565b808452858401906102b68239604080516001600160a01b037f000000000000000000000000000000000000000000000000000000000000000081168983019081529516602086015293879161010d908690830103601f198101875286610293565b60405194859383850197518091895e840190838201905f8252519283915e01015f815203601f198101835282610293565b51902090604051918383019160ff60f81b83523060601b60218501526035840152605583015260558252610173607583610293565b905190206040516001600160a01b039091168152f35b34610081576101973661026d565b9091612142908181019181831067ffffffffffffffff841117610259576101fd85859484936102b685396001600160a01b037f00000000000000000000000000000000000000000000000000000000000000008116825291909116602082015260400190565b03905ff590811561024e576040519081526020926001600160a01b0392831692169082907f33310a89c32d8cc00057ad6ef6274d2f8fe22389a992cf89983e09fc84f6cfff908590a3604051908152f35b6040513d5f823e3d90fd5b634e487b7160e01b5f52604160045260245ffd5b6040906003190112610081576004356001600160a01b0381168103610081579060243590565b90601f8019910116810190811067ffffffffffffffff8211176102595760405256fe60a03461015857601f61214238819003918201601f19168301916001600160401b03831184841017610131578084926040948552833981010312610158576100468161015c565b906001600160a01b039061005c9060200161015c565b16908115610145575f80546001600160a01b031981168417825560405193916001600160a01b03909116907f8be0079c531659141344cd1fd0a4f28419497f9722a3daafe3b4186f6b6457e09080a36001600160a01b03166080526118e28181016001600160401b03811183821017610131578291610860833903905ff0801561012657600180546001600160a01b0319166001600160a01b03929092169190911790556040516106ef90816101718239608051818181610182015281816102f7015261035a0152f35b6040513d5f823e3d90fd5b634e487b7160e01b5f52604160045260245ffd5b631e4fbdf760e01b5f525f60045260245ffd5b5f80fd5b51906001600160a01b03821682036101585756fe60806040526004361015610010575b005b5f3560e01c806319822f7c1461032657806344ab613f146102e2578063715018a61461028b5780637eccf63e1461026e5780638da5cb5b14610247578063a84c0c4a14610100578063b61d27f614610128578063d5dcbec6146101005763f2fde38b0361000e57346100fc5760203660031901126100fc576100906103b5565b610098610558565b6001600160a01b031680156100e9575f80546001600160a01b03198116831782556001600160a01b0316907f8be0079c531659141344cd1fd0a4f28419497f9722a3daafe3b4186f6b6457e09080a3005b631e4fbdf760e01b5f525f60045260245ffd5b5f80fd5b346100fc575f3660031901126100fc576001546040516001600160a01b039091168152602090f35b346100fc5760603660031901126100fc576101416103b5565b60443567ffffffffffffffff81116100fc57366023820112156100fc5780600401359167ffffffffffffffff83116100fc5736602484840101116100fc57337f00000000000000000000000000000000000000000000000000000000000000006001600160a01b0316141580610233575b6102245760245f939283859460405193849301833781018481520391602435905af16101dc610466565b90156101e457005b6044602091604051928391639b84b3e360e01b83528160048401528051918291826024860152018484015e5f828201840152601f01601f19168101030190fd5b634186dcf160e11b5f5260045ffd5b505f546001600160a01b03163314156101b2565b346100fc575f3660031901126100fc575f546040516001600160a01b039091168152602090f35b346100fc575f3660031901126100fc576020600254604051908152f35b346100fc575f3660031901126100fc576102a3610558565b5f80546001600160a01b0319811682556001600160a01b03167f8be0079c531659141344cd1fd0a4f28419497f9722a3daafe3b4186f6b6457e08280a3005b346100fc575f3660031901126100fc576040517f00000000000000000000000000000000000000000000000000000000000000006001600160a01b03168152602090f35b346100fc5760603660031901126100fc5760043567ffffffffffffffff81116100fc5761012060031982360301126100fc577f00000000000000000000000000000000000000000000000000000000000000006001600160a01b031633036103a65761039e60209160443590602435906004016103cb565b604051908152f35b6323662f7760e21b5f5260045ffd5b600435906001600160a01b03821682036100fc57565b9291926103db6020820135610490565b1561040857906103ea916104c6565b91806103f35750565b5f80808093338219f150610405610466565b50565b506001925050565b6040519190601f01601f1916820167ffffffffffffffff81118382101761043657604052565b634e487b7160e01b5f52604160045260245ffd5b67ffffffffffffffff811161043657601f01601f191660200190565b3d1561048b573d9061047f61047a8361044a565b610410565b9182523d5f602084013e565b606090565b6002548091036104c1575f1981146104ad57600101600255600190565b634e487b7160e01b5f52601160045260245ffd5b505f90565b61010081013590601e19813603018212156100fc57019081359167ffffffffffffffff83116100fc57602081019183360383136100fc5761050961047a8561044a565b9184835260208536920101116100fc575f60208561053b9661053296838701378401015261057e565b909291926105b8565b5f546001600160a01b03908116911603610553575f90565b600190565b5f546001600160a01b0316330361056b57565b63118cdaa760e01b5f523360045260245ffd5b81519190604183036105ae576105a79250602082015190606060408401519301515f1a9061062c565b9192909190565b50505f9160029190565b600481101561061857806105ca575050565b600181036105e15763f645eedf60e01b5f5260045ffd5b600281036105fc575063fce698f760e01b5f5260045260245ffd5b6003146106065750565b6335e2f38360e21b5f5260045260245ffd5b634e487b7160e01b5f52602160045260245ffd5b91907f7fffffffffffffffffffffffffffffff5d576e7357a4501ddfe92f46681b20a084116106ae579160209360809260ff5f9560405194855216868401526040830152606082015282805260015afa156106a3575f516001600160a01b0381161561069957905f905f90565b505f906001905f90565b6040513d5f823e3d90fd5b5050505f916003919056fea2646970667358221220d5bcd289bb9b7194d07f3fe3164601699fbbec3f6103732754d03e3bf3cc566564736f6c634300081c0033608080604052346071573315605e575f8054336001600160a01b0319821681178355916001600160a01b03909116907f8be0079c531659141344cd1fd0a4f28419497f9722a3daafe3b4186f6b6457e09080a361186c90816100768239f35b631e4fbdf760e01b5f525f60045260245ffd5b5f80fdfe608080604052600436101561001c575b50361561001a575f80fd5b005b5f3560e01c90816312d95b2e14610e315750806313d06a4c14610d235780631f69565f14610c24578063265d73fd14610be0578063273cbaa014610b575780635f5817e314610a0f5780635fa7b584146108b5578063715018a61461085e57806379620965146108215780638da5cb5b146107fa57806395ccea671461072a5780639ead7222146106e8578063c489744b146106b4578063e48603391461061c578063ebc6580414610199578063f2fde38b146101145763f5537ede146100e3575f61000f565b346101105760603660031901126101105761001a6100ff611374565b61010761138a565b604435916116e0565b5f80fd5b346101105760203660031901126101105761012d611374565b610135611810565b6001600160a01b03168015610186575f80546001600160a01b03198116831782556001600160a01b0316907f8be0079c531659141344cd1fd0a4f28419497f9722a3daafe3b4186f6b6457e09080a3005b631e4fbdf760e01b5f525f60045260245ffd5b346101105760a0366003190112610110576101b2611374565b6024356001600160401b038111610110576101d1903690600401611532565b906044356001600160401b038111610110576101f1903690600401611532565b9290936064359460ff8616809603610110576084359586151580970361011057610219611810565b6001600160a01b0383169687156105df57875f52600160205260ff600260405f20015460081c166105a35760405161025081611456565b61025b36878961168a565b815261026836898661168a565b906020810191825260408101938452606081019160018352608082019384528a5f52600160205260405f2091518051906001600160401b0382116104185781906102b2855461141e565b601f8111610553575b50602090601f83116001146104f0575f926104e5575b50508160011b915f199060031b1c19161782555b51805160018301916001600160401b03821161041857610305835461141e565b601f81116104a0575b50602090601f83116001146104375791806002949260ff96945f9261042c575b50508160011b915f199060031b1c19161790555b0193511660ff1984541617835551151561ff0083549160081b169061ff00191617825551151562ff000082549160101b169062ff000019161790556002549468010000000000000000861015610418576103ee610413936103ca8860017f2fb34ce114a136590b874d8cf80e7652adda576578bacfa4f8023f720f5693949a01600255611406565b81546001600160a01b0393841660039290921b91821b9390911b1916919091179055565b6104056040519586956040875260408701916116c0565b9184830360208601526116c0565b0390a2005b634e487b7160e01b5f52604160045260245ffd5b015190508f8061032e565b90601f19831691845f52815f20925f5b818110610488575092600192859260ff98966002989610610470575b505050811b019055610342565b01515f1960f88460031b161c191690558f8080610463565b92936020600181928786015181550195019301610447565b835f5260205f20601f840160051c810191602085106104db575b601f0160051c01905b8181106104d0575061030e565b5f81556001016104c3565b90915081906104ba565b015190508d806102d1565b5f8681528281209350601f198516905b81811061053b5750908460019594939210610523575b505050811b0182556102e5565b01515f1960f88460031b161c191690558d8080610516565b92936020600181928786015181550195019301610500565b909150845f5260205f20601f840160051c81019160208510610599575b90601f859493920160051c01905b81811061058b57506102bb565b5f815584935060010161057e565b9091508190610570565b60405162461bcd60e51b8152602060048201526014602482015273546f6b656e20616c72656164792065786973747360601b6044820152606490fd5b60405162461bcd60e51b8152602060048201526015602482015274496e76616c696420746f6b656e206164647265737360581b6044820152606490fd5b34610110576020366003190112610110576001600160a01b0361063d611374565b165f52600160205261068160405f2061065581611492565b9060ff61068f600261066960018501611492565b9301549260405195869560a0875260a08701906113a0565b9085820360208701526113a0565b918181166040850152818160081c161515606085015260101c16151560808301520390f35b346101105760403660031901126101105760206106e06106d2611374565b6106da61138a565b9061160a565b604051908152f35b346101105760203660031901126101105760043560025481101561011057610711602091611406565b905460405160039290921b1c6001600160a01b03168152f35b3461011057604036600319011261011057610743611374565b6024359061074f611810565b6001600160a01b03168061079157505f8080809360018060a01b03825416828215610788575bf11561077d57005b6040513d5f823e3d90fd5b506108fc610775565b5f805460405163a9059cbb60e01b81526001600160a01b039091166004820152602481019390935260209183916044918391905af1801561077d576107d257005b61001a9060203d6020116107f3575b6107eb8183611471565b810190611573565b503d6107e1565b34610110575f366003190112610110575f546040516001600160a01b039091168152602090f35b34610110576020366003190112610110576001600160a01b03610842611374565b165f526003602052602060ff60405f2054166040519015158152f35b34610110575f36600319011261011057610876611810565b5f80546001600160a01b0319811682556001600160a01b03167f8be0079c531659141344cd1fd0a4f28419497f9722a3daafe3b4186f6b6457e08280a3005b34610110576020366003190112610110576108ce611374565b6108d6611810565b6001600160a01b03165f8181526001602052604090206002015460081c60ff16156109d7575f818152600160205260408120600201805461ff00191690555b6002548082101561001a578261092a83611406565b905460039190911b1c6001600160a01b03161461094a5750600101610915565b5f198101925082116109c3576103ca61096561097d93611406565b905460039190911b1c6001600160a01b031691611406565b60025480156109af575f190161099281611406565b81546001600160a01b0360039290921b9190911b19169055600255005b634e487b7160e01b5f52603160045260245ffd5b634e487b7160e01b5f52601160045260245ffd5b60405162461bcd60e51b815260206004820152601060248201526f546f6b656e206e6f742061637469766560801b6044820152606490fd5b34610110575f366003190112610110576002545f805b828110610b095750610a36816115f3565b90610a446040519283611471565b808252610a53601f19916115f3565b013660208301375f915f5b818110610a775760405180610a7385826113c4565b0390f35b610a8081611406565b60018060a01b0391549060031b1c165f52600160205260ff600260405f20015460081c16610ab1575b600101610a5e565b92610abb84611406565b9054845160039290921b1c6001600160a01b031690821015610af55781610aed91602060019460051b870101526115e5565b939050610aa9565b634e487b7160e01b5f52603260045260245ffd5b610b1281611406565b60018060a01b0391549060031b1c165f52600160205260ff600260405f20015460081c16610b43575b600101610a25565b90610b4f6001916115e5565b919050610b3b565b34610110575f3660031901126101105760405180602060025491828152019060025f527f405787fa12a823e0f2b7631cc41b3ba8828b3321ca811111fa75cd3aa3bb5ace905f5b818110610bc157610a7385610bb581870382611471565b604051918291826113c4565b82546001600160a01b0316845260209093019260019283019201610b9e565b3461011057602036600319011261011057610bf9611374565b610c01611810565b6001600160a01b03165f908152600360205260409020805460ff19166001179055005b3461011057602036600319011261011057610c3d611374565b5f6080604051610c4c81611456565b6060815260606020820152826040820152826060820152015260018060a01b03165f526001602052610cf460405f2060405190610c8882611456565b610c9181611492565b82526002610ca160018301611492565b91602084019283520154604083019160ff8216835260ff610d076060860192828560081c161515845282608088019560101c1615158552604051978897602089525160a060208a015260c08901906113a0565b9051878203601f190160408901526113a0565b9351166060850152511515608084015251151560a08301520390f35b34610110576060366003190112610110576004356001600160401b03811161011057610d53903690600401611344565b6024356001600160401b03811161011057610d72903690600401611344565b906044356001600160401b03811161011057610d92903690600401611344565b9483851480610e28575b15610deb575f5b858110610dac57005b80610de5610dc5610dc06001948a876115d5565b61155f565b610dd3610dc0848a8a6115d5565b610dde848c896115d5565b35916116e0565b01610da3565b60405162461bcd60e51b8152602060048201526015602482015274082e4e4c2f240d8cadccee8d040dad2e6dac2e8c6d605b1b6044820152606490fd5b50858414610d9c565b3461011057602036600319011261011057600435906001600160401b0382116101105736829003906004830160c06003198401126101105760848401916001600160a01b03610e7f8461155f565b165f52600360205260ff60405f2054161561130f57506001600160a01b03610ea68261155f565b165f52600160205260ff600260405f20015460081c16156112ca5760248401936001600160a01b03610ed78661155f565b165f52600160205260ff600260405f20015460081c1615611285575f936001600160a01b03610f058461155f565b169360206044840135956064604051809981936323b872dd60e01b83523360048401523060248401528a60448401525af195861561077d57610f9c96611268575b506020856001600160a01b03610f5b8761155f565b16610f658461155f565b60405163095ea7b360e01b81526001600160a01b0390911660048201526024810192909252909788919082905f9082906044820190565b03925af195861561077d5760249661124b575b5060206001600160a01b03610fc38961155f565b16604051978880926370a0823160e01b82523060048301525afa95861561077d575f96611215575b50610ff59061155f565b9060a48301359060221901811215610110578201906004820135916001600160401b0383116101105760240190823603821361011057825f80949381946040519384928337810182815203925af161104b6115a6565b50156111e25760249360206001600160a01b036110678861155f565b16604051968780926370a0823160e01b82523060048301525afa94851561077d575f956111ae575b5084039384116109c357606401358310611169576001600160a01b036110b48561155f565b60405163a9059cbb60e01b8152336004820152602481018690529291602091849160449183915f91165af190811561077d576110ff926110f99261114c575b5061155f565b9361155f565b604080516001600160a01b03958616815291909416602082015292830152606082015233907fd36cc53ba71bc76a3db3364981f5296dd4ca5eba0e8c89874f2170515bd20d2490608090a2005b6111649060203d6020116107f3576107eb8183611471565b6110f3565b60405162461bcd60e51b815260206004820152601a60248201527f496e73756666696369656e74206f757470757420616d6f756e740000000000006044820152606490fd5b9094506020813d6020116111da575b816111ca60209383611471565b810103126101105751938661108f565b3d91506111bd565b60405162461bcd60e51b815260206004820152600b60248201526a14ddd85c0819985a5b195960aa1b6044820152606490fd5b9095506020813d602011611243575b8161123160209383611471565b81010312610110575194610ff5610feb565b3d9150611224565b6112639060203d6020116107f3576107eb8183611471565b610faf565b6112809060203d6020116107f3576107eb8183611471565b610f46565b60405162461bcd60e51b815260206004820152601a60248201527f4f757470757420746f6b656e206e6f7420737570706f727465640000000000006044820152606490fd5b60405162461bcd60e51b815260206004820152601960248201527f496e70757420746f6b656e206e6f7420737570706f72746564000000000000006044820152606490fd5b62461bcd60e51b815260206004820152601060248201526f111156081b9bdd08185c1c1c9bdd995960821b6044820152606490fd5b9181601f84011215610110578235916001600160401b038311610110576020808501948460051b01011161011057565b600435906001600160a01b038216820361011057565b602435906001600160a01b038216820361011057565b805180835260209291819084018484015e5f828201840152601f01601f1916010190565b60206040818301928281528451809452019201905f5b8181106113e75750505090565b82516001600160a01b03168452602093840193909201916001016113da565b600254811015610af55760025f5260205f2001905f90565b90600182811c9216801561144c575b602083101461143857565b634e487b7160e01b5f52602260045260245ffd5b91607f169161142d565b60a081019081106001600160401b0382111761041857604052565b90601f801991011681019081106001600160401b0382111761041857604052565b9060405191825f8254926114a58461141e565b808452936001811690811561151057506001146114cc575b506114ca92500383611471565b565b90505f9291925260205f20905f915b8183106114f45750509060206114ca928201015f6114bd565b60209193508060019154838589010152019101909184926114db565b9050602092506114ca94915060ff191682840152151560051b8201015f6114bd565b9181601f84011215610110578235916001600160401b038311610110576020838186019501011161011057565b356001600160a01b03811681036101105790565b90816020910312610110575180151581036101105790565b6001600160401b03811161041857601f01601f191660200190565b3d156115d0573d906115b78261158b565b916115c56040519384611471565b82523d5f602084013e565b606090565b9190811015610af55760051b0190565b5f1981146109c35760010190565b6001600160401b0381116104185760051b60200190565b6001600160a01b0316908115611684576040516370a0823160e01b81526001600160a01b03909116600482015290602090829060249082905afa90811561077d575f91611655575090565b90506020813d60201161167c575b8161167060209383611471565b81010312610110575190565b3d9150611663565b90503190565b9291926116968261158b565b916116a46040519384611471565b829481845281830111610110578281602093845f960137010152565b908060209392818452848401375f828201840152601f01601f1916010190565b6001600160a01b03165f8181526001602052604090206002015460081c60ff168015611808575b156117cd578061177057505f918291829182916001600160a01b03165af161172d6115a6565b501561173557565b60405162461bcd60e51b8152602060048201526013602482015272115512081d1c985b9cd9995c8819985a5b1959606a1b6044820152606490fd5b60405163a9059cbb60e01b81526001600160a01b03929092166004830152602482019290925290602090829060449082905f905af1801561077d576117b25750565b6117ca9060203d6020116107f3576107eb8183611471565b50565b60405162461bcd60e51b8152602060048201526013602482015272151bdad95b881b9bdd081cdd5c1c1bdc9d1959606a1b6044820152606490fd5b508015611707565b5f546001600160a01b0316330361182357565b63118cdaa760e01b5f523360045260245ffdfea2646970667358221220b29d951d315885af44e4bdc9ca6d8899abcc8c732fc1917b60c3895a7c491f4a64736f6c634300081c0033a26469706673582212207c43e767d68c7a54f0e00fb9f40f4ae658de4f3a206c4e5107a803fccef8f93464736f6c634300081c0033",
        "linkReferences": {}
    },
    "methodIdentifiers": {
        "createAccount(address,uint256)": "5fbfb9cf",
        "entryPoint()": "b0d691fe",
        "getAddress(address,uint256)": "8cb84e18"
    },
    "id": 35
}